:020000000328D3
:1000060083168501831285010130D1001430510217
:1000160003182C28013085000230DB000430DC0098
:10002600BA30DD00DD0B1528DC0B1528DB0B152897
:10003600000085010230DB000430DC00BA30DD0050
:10004600DD0B2328DC0B2328DB0B23280000D10A39
:1000560009280130D1001E30510203184B28013007
:1000660085008230DC00DD30DD00DD0B3828DC0B5E
:1000760038280000000085018230DC00DD30DD001C
:10008600DD0B4328DC0B432800000000D10A2E2894
:100096000130D10032305102031868280130850042
:1000A6004130DC00EE30DD00DD0B5728DC0B572835
:1000B600000085014130DC00EE30DD00DD0B6128FB
:1000C600DC0B61280000D10A4D28013085006A2822
:02400E00D431AB
:00000001FF
